:100000000C9435000C945D000C945D000C945D0024
:100010000C945D000C945D000C945D000C945D00EC
:100020000C945D000C945D000C945D000C945D00DC
:100030000C945D000C945D000C945D000C945D00CC
:100040000C94CA050C945D000C945D000C945D004A
:100050000C945D000C945D000C945D000C945D00AC
:100060000C945D000C945D00140611241FBECFEFAC
:10007000D8E0DEBFCDBF11E0A0E0B1E0ECE7F2E1F7
:1000800002C005900D92AE32B107D9F721E0AEE281
:10009000B1E001C01D92A63AB207E1F710E0C5E356
:1000A000D0E004C02197FE010E942209C433D10789
:1000B000C9F70E943A060C943C090C940000CF93B7
:1000C000DF9300D000D000D0CDB7DEB78C01809197
:1000D000690190916A01FC01EE0FFF1FEE5DFE4F7A
:1000E00020813181201731072CF4019690936A0109
:1000F000809369012090690130906A01410121E0FB
:10010000821A91085401AA0CBB1CF501EE5DFE4F4A
:1001100020813181C801821B930BA101440F551F1F
:100120005E834D83FA01EE5DFE4F60817181621B3B
:10013000730B0E94C608072E000C880B990B0E94B7
:10014000BD076B017C018D819E81280E391EF10156
:10015000EC56FE4F1F01F181F983F101F281FA8320
:10016000A501480D591D4C565E4F5E834D83FA0123
:10017000F181FB83FA01F281FC83A701960160E023
:1001800070E080E89FE30E9418074B015C01ED815D
:10019000FE81608170E090E080E00E94BD07A701D1
:1001A00096010E9449082B013C01F101608170E039
:1001B00090E080E00E94BD07A50194010E944908DB
:1001C0009B01AC01C301B2010E9419070E9485077F
:1001D00060935401FB816F2F70E090E080E00E94FB
:1001E000BD07A70196010E9449082B013C01298106
:1001F000622F70E090E080E00E94BD07A5019401AD
:100200000E9449089B01AC01C301B2010E94190779
:100210000E948507609355014C81642F70E090E047
:1002200080E00E94BD07A70196010E9449086B016A
:100230007C015A81652F70E090E080E00E94BD074C
:10024000A50194010E9449089B01AC01C701B601B8
:100250000E9419070E94850760935601045F1140B0
:1002600036CF80E991E008953FB7F894809131014D
:1002700090913201A0913301B091340126B5A89B31
:1002800005C02F3F19F00196A11DB11D3FBFBA2F28
:10029000A92F982F8827BC01CD01620F711D811DE8
:1002A000911D42E0660F771F881F991F4A95D1F76D
:1002B00008954F925F926F927F929F92AF92BF92FA
:1002C000CF92DF92EF92FF920F931F93CF93DF9322
:1002D00000D01F92CDB7DEB7F82E80918A019091A1
:1002E0008B01A0918C01B0918D01892B8A2B8B2BD6
:1002F000D9F00E9434010091830110918401209172
:10030000850130918601601B710B820B930B00916C
:100310008A0110918B0120918C0130918D01601721
:10032000710782079307C8F20E943401609383012A
:10033000709384018093850190938601E0919201EE
:10034000F0919301309759F040918E0150918F01B7
:1003500060919001709191018F2D0995F82E009177
:100360008101109182014F2C512C712C612C0115AF
:10037000110509F45EC0D8011C96EC901C97809181
:100380008801909189018436910510F41C961C9285
:10039000D801ED91FC91A280B38019821A821B8250
:1003A000FF2089F1F8013696D12CC12C219122230E
:1003B00019F19280992001F130E050E040E02F5F88
:1003C0003F4F4F4F5F4FC301B2010E94B6089B01E0
:1003D000AC01892D90E0B0E0A0E0BC01CD016F5FE1
:1003E0007F4F8F4F9F4F0E94B608A1E0B0E0AC0F47
:1003F000BD1FAC0DBD1D8C93BFEFCB1ADB0A83E094
:10040000C816D10499F6D8011D964D915C911E979E
:1004100012966D917C919E012F5F3F4FC801F501AF
:100420000995D8011C96EC921C9714960D911C917D
:100430009ECF80917F01909180019C012F5F3F4F63
:100440003093800120937F0149970CF44AC08FB705
:10045000F894209177013091780140917901509181
:100460007A018FBF80917B0190917C01A0917D01E9
:10047000B0917E01281B390B4A0B5B0B21F421E064
:1004800030E040E050E0E0917F01F091800188EEA3
:1004900093E0E89FB001E99F700DF89F700D112463
:1004A000072E000C880B990B0E94DA083093890103
:1004B000209388011092800110927F012FB7F89449
:1004C0008091770190917801A0917901B0917A01A2
:1004D0002FBF80937B0190937C01A0937D01B0930B
:1004E0007E010F900F900F90DF91CF911F910F9190
:1004F000FF90EF90DF90CF90BF90AF909F907F9054
:100500006F905F904F9008950F931F93CF93DF9359
:1005100020912F012F5F322F377030932F0120FF52
:100520002BC020E831FD2064347009F02062205F88
:10053000FC01EC01239600E011E06485662329F0BC
:1005400070E0C8010E94C6086F5F6187322F369F36
:10055000030E30E0311D1124311110C016826623C4
:1005600011F0615061873196EC17FD0731F7DF918B
:10057000CF911F910F91089520E0D4CF3150368351
:10058000EECF4F925F926F927F928F92AF92BF9217
:10059000CF92DF92EF920F931F93CF93DF933C01A3
:1005A000EB010E943401F30127853089621B730B34
:1005B0006A307105B0F3F894E881F9817BB1746019
:1005C0006BB16B7F6BB9CA848F812C2D281B822F56
:1005D0002F83BF844A805B801D850C85DE841F5F6E
:1005E0000F5FD3949E813885A984EB844181D20129
:1005F00020E0C32F522F322F3181442788943111AC
:10060000380F08F43FEF8195889410FD430F47950C
:10061000889411FD430F4795889412FD430F479529
:10062000889413FD430F4795889414FD430F479515
:10063000889415FD430F4795889416FD430F479501
:10064000889417FD430F47958894232F1111242F69
:100650008C0D422F002C7BB900C047FF6BB9308155
:100660002227889400C000C0002C6BB93111390FCB
:1006700000C0002C7BB900C046FF6BB908F43FEF07
:100680009195889400C000C0002C6BB900FD230F29
:1006900000C0002C7BB900C045FF6BB9279588943A
:1006A00001FD230F00C000C0002C6BB92795889472
:1006B00000C0002C7BB900C044FF6BB902FD230FC2
:1006C0002795889400C000C0002C6BB903FD230F50
:1006D00000C0002C7BB900C043FF6BB927958894FC
:1006E00004FD230F00C000C0002C6BB9279588942F
:1006F00000C0002C7BB900C042FF6BB905FD230F81
:100700002795889400C000C0002C6BB906FD230F0C
:1007100000C0002C7BB900C041FF6BB927958894BD
:1007200007FD230F00C000C0002C6BB927958894EB
:1007300000C0002C7BB900C040FF6BB9432F0111F2
:10074000422F9A0D00C000C0002C6BB900C000C041
:10075000002C7BB900C047FF6BB9328122278894F7
:1007600000C000C0002C6BB931113C0F00C0002C40
:100770007BB900C046FF6BB908F43FEFEB0DF11DEC
:1007800000C000C0002C6BB9D0FC230F00C0002CAF
:100790007BB900C045FF6BB927958894D1FC230F26
:1007A00000C000C0002C6BB92795889400C0002CB5
:1007B0007BB900C044FF6BB9D2FC230F2795889406
:1007C00000C000C0002C6BB9D3FC230F00C0002C6C
:1007D0007BB900C043FF6BB927958894D4FC230FE5
:1007E00000C000C0002C6BB92795889400C0002C75
:1007F0007BB900C042FF6BB9D5FC230F27958894C5
:1008000000C000C0002C6BB9D6FC230F00C0002C28
:100810007BB900C041FF6BB927958894D7FC230FA3
:1008200000C000C0002C6BB92795889400C0002C34
:100830007BB900C040FF6BB9432FD110422FC19547
:1008400000C000C0002C6BB9CE0D00C000C07BB949
:1008500000C047FF6BB931812227889400C000C0D7
:10086000002C6BB93111380F00C0002C7BB900C0CF
:1008700046FF6BB908F43FEF8195889400C000C033
:10088000002C6BB910FD230F00C0002C7BB900C0F9
:1008900045FF6BB92795889411FD230F00C000C058
:1008A000002C6BB92795889400C0002C7BB900C040
:1008B00044FF6BB912FD230F2795889400C000C038
:1008C000002C6BB913FD230F00C0002C7BB900C0B6
:1008D00043FF6BB92795889414FD230F00C000C017
:1008E000002C6BB92795889400C0002C7BB900C000
:1008F00042FF6BB915FD230F2795889400C000C0F7
:10090000002C6BB916FD230F00C0002C7BB900C072
:1009100041FF6BB92795889417FD230F00C000C0D5
:10092000002C6BB92795889400C0002C7BB900C0BF
:1009300040FF6BB9432F1111422F8C0D00C000C036
:10094000002C6BB9119709F086CE20EE31E0D20170
:100950000E94FC08DC01CB01F4E0B695A7959795C1
:100960008795FA95D1F730E020E0B901EAE94E9E8B
:10097000040C611D5E9E600D711D1124650D711DBD
:10098000860F971FA11DB11D893E43E09407A10565
:10099000B10508F434C0885E9340A109B10942E072
:1009A000B695A795979587954A95D1F747E0849F87
:1009B000080E211D949F200D311D1124290F311D7A
:1009C00060912E0170E0860F971F820F931F409158
:1009D0007701509178016091790170917A01292F06
:1009E0003327420F531F611D711D409377015093B0
:1009F00078016093790170937A0180932E01789445
:100A00000E943401F301708B6787DF91CF911F91B2
:100A10000F91EF90DF90CF90BF90AF908F907F902D
:100A20006F905F904F900895529A08950F931F937F
:100A3000CF93DF93CDB7DEB762970FB6F894DEBFE2
:100A40000FBECDBF8C01F901DC011C968C917A831D
:100A500069835C834B835E834D8390819D87918105
:100A60009E8792819F878130F1F4CE0101960E948A
:100A7000840283E0888B1A8A198AD801ED91FC914F
:100A80000484F585E02DBE016F5F7F4FC801099595
:100A900062960FB6F894DEBF0FBECDBFDF91CF9147
:100AA0001F910F9108951C861B861A861986188639
:100AB0001F82DFCF0F931F93CF93DF93CDB7DEB7A6
:100AC00062970FB6F894DEBF0FBECDBF8C01F9015F
:100AD000DC011C968C917A8369835C834B835E83F3
:100AE0004D8390819D8791819E8792819F878130E0
:100AF000E9F4CE0101960E948402188A1A8A198AA2
:100B0000D801ED91FC910484F585E02DBE016F5F65
:100B10007F4FC801099562960FB6F894DEBF0FBEED
:100B2000CDBFDF91CF911F910F9108951C861B8639
:100B30001A86198618861F82E0CF90E080E008951B
:100B4000FC01858596850895CF93DF9300D000D072
:100B500000D0CDB7DEB7AB011C821D821E82DC0146
:100B6000ED91FC910190F081E02D19821A821B8297
:100B70009E012F5F3F4FBE016C5F7F4F0995269608
:100B80000FB6F894DEBF0FBECDBFDF91CF910895B1
:100B90000E9437091F920F920FB60F9211242F93C4
:100BA0003F938F939F93AF93BF93809177019091E1
:100BB0007801A0917901B0917A013091300123E060
:100BC000230F2D3758F50196A11DB11D209330013B
:100BD0008093770190937801A0937901B0937A0183
:100BE0008091310190913201A0913301B091340193
:100BF0000196A11DB11D8093310190933201A09304
:100C00003301B0933401BF91AF919F918F913F9188
:100C10002F910F900FBE0F901F90189526E8230F6D
:100C20000296A11DB11DD2CFE7E8F1E08FEF8083DE
:100C300012821182148613868FEF9FEFDC01878367
:100C40009087A187B287E4E9F1E0108211821282D5
:100C500013821482158283E386831782108681872C
:100C60008287138614869DE1958786871786908BE9
:100C7000818B0895789484B5826084BD84B5816049
:100C800084BD85B5826085BD85B5816085BD809157
:100C90006E00816080936E001092810080918100CF
:100CA00082608093810080918100816080938100C7
:100CB000809180008160809380008091B100846089
:100CC0008093B1008091B00081608093B0008091EA
:100CD0007A00846080937A0080917A0082608093A9
:100CE0007A0080917A00816080937A0080917A0006
:100CF000806880937A001092C10086E090E0909323
:100D000053018093520180914801811145C0109296
:100D10003A01109239018FEF80933D0180933E019B
:100D200080933F0180934001809341018093420171
:100D300081E080934301109245011092440110928A
:100D40003C0110923B018091810190918201892B9D
:100D500031F487E391E09093820180938101E091E7
:100D60003501F0913601309721F087E391E09583CA
:100D7000848387E391E0909336018093350110924C
:100D800047011092460184E191E0909338018093ED
:100D9000370181E080934801529A84E591E0909375
:100DA0003A018093390187E090E090934501809368
:100DB000440180918A0190918B01A0918C01B091A6
:100DC0008D01843C29E09207A105B10520F484EC53
:100DD00099E0A0E0B0E080938A0190938B01A0930A
:100DE0008C01B0938D0180E28093540110925501E3
:100DF00010925601809187010E945901C0E0D0E015
:100E0000E0915201F0915301EE0FFF1FE05EFE4FA3
:100E10002081318180915001909151018217930777
:100E200014F40E945F002097C9F30E940000E8CFED
:100E30005058BB27AA270E9430070C940F080E9425
:100E4000010838F00E94080820F039F49F3F19F497
:100E500026F40C94FE070EF4E095E7FB0C94F807DB
:100E6000E92F0E94200858F3BA1762077307840716
:100E7000950720F079F4A6F50C9442080EF4E0955D
:100E80000B2EBA2FA02D0B01B90190010C01CA0144
:100E9000A0011124FF27591B99F0593F50F4503EEF
:100EA00068F11A16F040A22F232F342F4427585FE1
:100EB000F3CF469537952795A795F0405395C9F7F9
:100EC0007EF41F16BA0B620B730B840BBAF09150B1
:100ED000A1F0FF0FBB1F661F771F881FC2F70EC050
:100EE000BA0F621F731F841F48F487957795679523
:100EF000B795F7959E3F08F0B0CF9395880F08F00F
:100F00009927EE0F9795879508950E948C0768940E
:100F1000B1110C94430808950E94280888F09F5747
:100F200098F0B92F9927B751B0F0E1F0660F771F0D
:100F3000881F991F1AF0BA95C9F714C0B13091F003
:100F40000E944208B1E008950C944208672F782F60
:100F50008827B85F39F0B93FCCF3869577956795C8
:100F6000B395D9F73EF490958095709561957F4F34
:100F70008F4F9F4F0895E89409C097FB3EF49095DA
:100F80008095709561957F4F8F4F9F4F9923A9F062
:100F9000F92F96E9BB279395F695879577956795F1
:100FA000B795F111F8CFFAF4BB0F11F460FF1BC035
:100FB0006F5F7F4F8F4F9F4F16C0882311F096E9C8
:100FC00011C0772321F09EE8872F762F05C0662376
:100FD00071F096E8862F70E060E02AF09A95660F2F
:100FE000771F881FDAF7880F9695879597F90895E8
:100FF00097F99F6780E870E060E008959FEF80ECCC
:10100000089500240A94161617061806090608956E
:1010100000240A9412161306140605060895092ED4
:101020000394000C11F4882352F0BB0F40F4BF2B43
:1010300011F460FF04C06F5F7F4F8F4F9F4F089583
:1010400057FD9058440F551F59F05F3F71F0479579
:10105000880F97FB991F61F09F3F79F0879508955E
:10106000121613061406551FF2CF4695F1DF08C07D
:10107000161617061806991FF1CF8695710561059A
:1010800008940895E894BB2766277727CB0197F942
:1010900008950E945C080C940F080E94010838F023
:1010A0000E94080820F0952311F00C94F8070C9486
:1010B000FE0711240C9443080E94200870F3959FAA
:1010C000C1F3950F50E0551F629FF001729FBB273F
:1010D000F00DB11D639FAA27F00DB11DAA1F649FDB
:1010E0006627B00DA11D661F829F2227B00DA11D8E
:1010F000621F739FB00DA11D621F839FA00D611D14
:10110000221F749F3327A00D611D231F849F600D34
:10111000211D822F762F6A2F11249F5750409AF05D
:10112000F1F088234AF0EE0FFF1FBB1F661F771FE9
:10113000881F91505040A9F79E3F510580F00C94B4
:10114000F8070C9443085F3FE4F3983ED4F3869588
:1011500077956795B795F795E7959F5FC1F7FE2B54
:10116000880F911D9695879597F90895DB018F93C8
:101170009F930E940309BF91AF91A29F800D911D83
:10118000A39F900DB29F900D1124089597FB072EF9
:1011900016F4009407D077FD09D00E940E0907FCD1
:1011A00005D03EF4909581959F4F08957095619577
:1011B0007F4F0895A1E21A2EAA1BBB1BFD010DC093
:1011C000AA1FBB1FEE1FFF1FA217B307E407F507F7
:1011D00020F0A21BB30BE40BF50B661F771F881FD3
:1011E000991F1A9469F760957095809590959B0169
:1011F000AC01BD01CF0108950E942809B7FF0895F1
:10120000821B930B08950E942809A59F900DB49FFF
:10121000900DA49F800D911D11240895AA1BBB1B46
:1012200051E107C0AA1FBB1FA617B70710F0A61BE6
:10123000B70B881F991F5A95A9F780959095BC0107
:10124000CD010895EE0FFF1F0590F491E02D099454
:10125000A29FB001B39FC001A39F700D811D1124F7
:10126000911DB29F700D811D1124911D089581E083
:0C12700090E0F8940C943C09F894FFCF37
:10127C0000000000C805C805C805A405A0059D050B
:10128C00000000005A0516051405A405A00531013F
:0E129C00C10278EC0000F4012003DC05881389
:107E0000112484B714BE81FFF0D085E080938100F7
:107E100082E08093C00088E18093C10086E0809377
:107E2000C20080E18093C4008EE0C9D0259A86E02C
:107E300020E33CEF91E0309385002093840096BBD3
:107E4000B09BFECF1D9AA8958150A9F7CC24DD24C4
:107E500088248394B5E0AB2EA1E19A2EF3E0BF2EE7
:107E6000A2D0813461F49FD0082FAFD0023811F036
:107E7000013811F484E001C083E08DD089C08234E0
:107E800011F484E103C0853419F485E0A6D080C0E4
:107E9000853579F488D0E82EFF2485D0082F10E0AE
:107EA000102F00270E291F29000F111F8ED06801E7
:107EB0006FC0863521F484E090D080E0DECF843638
:107EC00009F040C070D06FD0082F6DD080E0C81688
:107ED00080E7D80618F4F601B7BEE895C0E0D1E017
:107EE00062D089930C17E1F7F0E0CF16F0E7DF06D8
:107EF00018F0F601B7BEE89568D007B600FCFDCFD4
:107F0000A601A0E0B1E02C9130E011968C91119780
:107F100090E0982F8827822B932B1296FA010C0160
:107F200087BEE89511244E5F5F4FF1E0A038BF0790
:107F300051F7F601A7BEE89507B600FCFDCF97BE46
:107F4000E89526C08437B1F42ED02DD0F82E2BD052
:107F50003CD0F601EF2C8F010F5F1F4F84911BD097
:107F6000EA94F801C1F70894C11CD11CFA94CF0C13
:107F7000D11C0EC0853739F428D08EE10CD085E9AC
:107F80000AD08FE07ACF813511F488E018D01DD067
:107F900080E101D065CF982F8091C00085FFFCCF94
:107FA0009093C60008958091C00087FFFCCF809118
:107FB000C00084FD01C0A8958091C6000895E0E648
:107FC000F0E098E1908380830895EDDF803219F02E
:107FD00088E0F5DFFFCF84E1DECF1F93182FE3DFCA
:107FE0001150E9F7F2DF1F91089580E0E8DFEE27F6
:047FF000FF270994CA
:027FFE00040479
:0400000300007E007B
:00000001FF
